:100000000004001003010000D5000000D70000002C
:1000100000000000000000000000000000000000E0
:10002000000000000000000000000000D9000000F7
:100030000000000000000000DB000000DD00000008
:10004000DF000000DF00000000000000DF00000013
:10005000DF000000DF0000000000000000000000E2
:10006000DF000000DF000000210A0000DF000000C8
:10007000DF000000DF00000000000000DF000000E3
:100080000000000000000000000000000000000070
:100090000000000000000000000000000000000060
:1000A000DF000000DF000000DF000000DF000000D4
:1000B000DF000000DF000000DF000000DF000000C4
:1000C000B40E00000000001008000000080000103E
:1000D0000C000000FEE7FEE7FEE7FEE7FEE7FEE7B6
:1000E000002310B5934203D21C585C500433F9E747
:1000F00010BD00238B4203D200221A500433F9E7CB
:10010000704710B50C4C0D4B9C4206D220686168BC
:10011000A268FFF7E5FF0C34F5E7094B9C4205D2D6
:1001200020686168FFF7E5FF0834F6E700F024FE79
:1001300000F042FEFEE7C046C0000000CC00000018
:10014000D400000008B5044B1B78002B02D02720F8
:1001500000F010FD08BDC0460D00001070B5061C73
:100160000D1C0024AC421EDA230707D1FFF7EAFF7B
:10017000E0B200F099FD3A2000F0FCFC305D00F0A8
:1001800093FD0A4B234004D51022013B52421343F6
:1001900001330F2B02D100F055FD02E0202000F0CA
:1001A000E9FC0134DEE700F04DFD70BD0F0000807A
:1001B0008021084AD36F0B43D367074B074AC139E5
:1001C0001A60074ADA61FD2252421A62E0225200A6
:1001D000995070470480044000C000400400FFFFB5
:1001E000FFFFFF020278131C303BDBB2092B09D959
:1001F000131C613B052B03D9131C413B052B19D85C
:100200000A33DBB21B01DAB24378181C3038C0B2B3
:10021000092801D810180BE0191C6139052901D8EB
:10022000573B04E0191C4139052903D8373BD01846
:10023000C0B201E0012040427047000070B5151CBB
:10024000041C0E1CFFF77EFF134800F0F1FC281C75
:1002500000F0EEFC114800F0EBFCE0B200F000FD15
:10026000002C03DC0E4800F0F5FC70BD0D4800F0DA
:10027000DFFC307800F07EFC202000F07BFC751C59
:100280003419A542EED0287800F00EFD064800F0A3
:10029000CFFC0135F5E7C0463A0E0000410E0000E4
:1002A000750E0000470E00004F0E0000F0B5041C54
:1002B00085B0642000F082FA002C11D0FFF742FFD5
:1002C0002F4800F0B5FC0025281C013500F0ECFC9F
:1002D000EDB22C4800F0ACFC102DF5D100F0B2FCD2
:1002E0000025EEB2802D43D00F27331C3B400193F5
:1002F0000AD1002C08D0FFF725FF301CB84300F0CE
:10030000D3FC204800F094FC331C083B6F2B03D92E
:100310001B48002C2AD022E06F0002AB381CD91DEC
:10032000002200F0C5FA002806D1301C00F0BCFC09
:100330001448002C1AD012E0012002AB3843D91D1A
:10034000002200F0B5FA002806D1301C00F0ACFC09
:100350000D48002C0AD002E0002C07D00B4800F01A
:1003600067FC019B0F2B01D100F06CFC0135B8E755
:1003700000F068FCFA20400000F020FA05B0F0BD63
:100380004D0E00004F0E0000510E0000530E0000F5
:10039000F0B5037885B0041C0391161C772B07D1A8
:1003A000039A4078A11C023A400000F081FA0BE069
:1003B000722B0BD14078A378039A00934000E11C84
:1003C000033A331C00F0C0FA051C25E0632B18D15A
:1003D0000327039B9F4212DA6078A1784000C0B2E5
:1003E000E25D00F083FA051E16D1294B187800282B
:1003F00001D000F053FB0137EBE7642B0AD1002555
:100400000AE0672BF9D14078A278311C400000F057
:1004100077FAD9E7002537E01E4B1B78002B07D071
:100420006D42FFF78FFEE8B200F03EFC00F00AFCE0
:100430002378722B01D0672B26D1002D24D1164BA7
:100440001B78002B0ED1FFF77DFE371CA278BB1B5B
:10045000934204DA387800F027FC0137F6E700F021
:10046000F1FB11E0012B0BD1FFF76CFE351CA278DC
:10047000AB1B9342CEDA287800F07CFB0135F6E71F
:10048000A178301CFFF76AFE281C05B0F0BDC046FD
:100490000C000010110000100F000010F7B500252F
:1004A00005700B78071C0C1C281C402B00D00BE19E
:1004B000009501952378002B01D00A2B04D1002050
:1004C000854200D0F1E0FFE00D2BF8D0402B01D0A9
:1004D0000A20F8E06678652E0AD1A3780022302B36
:1004E00003D0312B00D0E9E00122784B1A7009E0EB
:1004F0006F2E09D1A378303BDBB2022B00D9DDE0AF
:10050000734A13700334D5E7442E09D1A37800222F
:10051000302B03D0312B00D0D0E001226D4BE5E72A
:100520006E2E0AD1A3780020302B03D0312B00D0BF
:10053000C4E0012000F0CEFBE4E7762E06D1FFF701
:1005400001FE654800F086FB0234B3E7782E0AD13D
:10055000A3780020302B03D0312B00D0AEE0012057
:10056000FFF7A4FECEE7742E08D1A01CFFF73AFED9
:10057000002800DAA2E0594B187009E0542E09D186
:10058000A01CFFF72FFE002800DA97E000F086FAA3
:1005900004348FE7692E09D1A3780022302B03D0D1
:1005A000312B00D08AE001224D4B9FE76C2E08D101
:1005B000A3780022302B02D0312B7FD10122494B6E
:1005C00094E7019B002B47D1772E0BD1A01CFFF79E
:1005D00009FE002800DA7BE76B1C7E550434F854D2
:1005E000023516E0632E01D0722E14D1A01CFFF745
:1005F000F9FD002800DA6BE77B197E555870201D45
:10060000AE1CFFF7EFFD002800DA61E70335B855AF
:100610000634012317E0672E17D1A01CFFF7E2FD77
:10062000002800DA54E767237B557B195870201D9A
:10063000AE1CFFF7D7FD002800DA49E70335B855AF
:10064000063401230093019334E7642E38D16423E8
:1006500002347B550135F4E7682E10D10234201C9A
:10066000FFF7C0FD002800DA32E701356B1EF854B1
:1006700002342378402B15D01F2BF0D812E0732EB4
:1006800001D0013416E7291C2B1CA01C421AD25C95
:100690005C1A1D1C0419402A04D01F2A02D9FA54DE
:1006A0000133F3E70123009304E7019B002B09D0FA
:1006B000009B281C002B07D10F2004E00C2002E037
:1006C0000D2000E00E204042FEBDC046110000108B
:1006D0000F00001010000010570E00000C0000105A
:1006E0000D0000100E00001010B50024194BF0B0E2
:1006F0001C70194B10A81B788021221C00F05EFA98
:10070000031C201CA34222DD684610A9FFF7C6FE89
:10071000041E0CDA114B1B78002B16D0FFF712FDCC
:100720006042C0B200F0C0FA00F08CFA0DE00C4B51
:100730001B78002B03D0694610AAFFF77FFD68469F
:10074000211C30AAFFF724FE01E00120404270B0D6
:1007500010BDC0460C0000100E000010110000106B
:100760001000001010B500F0B7FAFFF721FD00F0FF
:1007700067F9E1210B48490200F0C2F900F01AF9CB
:1007800001220024084B201C1A70084B1C70084BD7
:100790001C70084B1C7000F09DFA074B1C70FFF793
:1007A000A3FFFCE700400640110000100F000010FE
:1007B000100000100D0000100E000010014B18601A
:1007C0007047C0460000001038B500F071F9074BC3
:1007D0001B68C5180120064B5B6803401C1E04D132
:1007E00000F066F9A842F5D9201C38BD00000010C1
:1007F0000000054038B5051CFFF7E6FF002813D0C0
:1008000002230B4CA5622362FFF7DEFF002803D111
:1008100004230138236209E00E236268002013409C
:10082000062B03D1032000E00120404238BDC04622
:100830000000054038B504250C4C63682B4201D1FB
:1008400025620FE00123A0622362FFF7BDFF0028AD
:1008500002D12562013807E00E23626800201340B0
:10086000082B01D10420404238BDC046000005409D
:1008700070B5061CFFF7A8FF0C4C00280FD063686A
:100880009B0703D40423052523620BE0A56A002EF1
:1008900009D001232362FFF797FF002803D1042327
:1008A000012523626D42281C70BDC0460000054032
:1008B00038B50C1C151CFFF79DFF6519002811D1D8
:1008C000AC4206D02078FFF7B5FF01340028F7D0FE
:1008D00008E00422044B1A62FFF776FF0123584018
:1008E000C0B2404238BDC0460000054007B501AB6C
:1008F00019705A70191C0222FFF7DAFFC0B20EBD40
:10090000012370B518430D1C141CFFF773FF061E5E
:1009100016D1A6420BD0601E301A431E9841C0B2B9
:10092000FFF7A6FF00280BDBA8550136F1E70422EC
:10093000044B1A62FFF748FF01235840C0B24042FF
:1009400070BDC04600000540F8B50C1C161C051C07
:100950001F1CFFF74FFFA619002827D1B44206D06D
:100960002078FFF767FF01340028F7D01EE0012050
:100970002843FFF73FFF041E18D1069B9C420CD072
:10098000069B581E201A431E9841C0B2FFF770FF05
:1009900000280BDB38550134EFE70422044B1A62C0
:1009A000FFF712FF01235840C0B24042F8BDC046D5
:1009B000000005408220154BC000196A01431962EE
:1009C000DA6902432020DA61114B191DCA6F024314
:1009D000CA6759680018814359605A6802435A60CF
:1009E00059220C4B3F385A61196800228143196023
:1009F00080215A62084A4900D1671A6802431A6086
:100A0000FA22064B52001A607047C046004004406C
:100A1000008004400000054004E100E000000010F8
:100A20000122054BD968114204D0DA60034A1368E9
:100A3000013313607047C0460040004008000010BA
:100A4000002210B5802480200F4BE4001A600F4B69
:100A5000191DCA6F2243CA67596881435960FA2138
:100A60005A68890002435A60094B186800F0ABF9D4
:100A70008021084B090618601A680A431A6001228F
:100A80009A60054B1C6010BD0800001000800440F7
:100A9000040000100040004000E100E0034B1A6831
:100AA00080181A688242FCD37047C04608000010C4
:100AB000014B18687047C0460800001001210B4A1E
:100AC00010B511600A4A0B4B90420ED180240A4A9D
:100AD00007310A48D167C26FE4012243C2675A68EE
:100AE0008A435A605A680A435A6010BD9480044091
:100AF000004006400080044004E100E0048004401F
:100B0000F7B5194D041C0F1CFFF7D8FF2B1C9433AD
:100B10001968164B186800F056F904230609391CA9
:100B20002360301C00F04FF92B1CFF22F0330138FA
:100B300020621A601868216A1B680130DB430131AA
:100B400070437943019300F03EF9019B012218188C
:100B50008223F4351B012860A3602368134300221D
:100B60002360034B1A70F7BD00800440040000109E
:100B700012000010024B9A685207FBD5D8617047EB
:100B800000400640024B9868012318407047C04659
:100B90000040064010B5074B1A781C1C002A07D0ED
:100BA000FFF7F0FF002801D0034B5B69002323709F
:100BB00010BDC0461200001000400640F7B5171CDB
:100BC00000910193041CFFF773FF0025061CFFF73B
:100BD000E1FFFFF7D7FF002813D0134B5869019BA3
:100BE000C0B22070002B01D0FFF7C4FF23780D2B7B
:100BF000EFD00A2B13D0FFF75BFF01350134061C41
:100C000006E0002F04D0FFF753FF801B874206D871
:100C1000009B013B9D42DCDB0122044B1A70002348
:100C2000281C2370FEBDC046004006401200001084
:100C300010B5041C2078002803D0FFF79BFF013477
:100C4000F8E710BD08B50D20FFF794FF0A20FFF765
:100C500091FF08BD08B5FFF7EBFFFFF7F3FF08BDF5
:100C600010B5041E642C0BD9642100F0ACF83030B0
:100C7000C0B2FFF77FFF201C642100F0A4F8CCB2C3
:100C80000A2C0CD90A21201C00F09DF83030C0B28B
:100C9000FFF770FF201C0A2100F095F8CCB2303429
:100CA000E0B2FFF767FF10BD030910B5041C181C64
:100CB0003030092B01D93733181CFFF75BFF0F23A6
:100CC0002340181C3030092B01D93733181CFFF78B
:100CD00051FF10BD7047000070B5234D00206B6AB6
:100CE000DB051B0F013B0E2B02D8204A9B009858B6
:100CF0000322696A2B6F1C4E13401D4C022B09D036
:100D000093420FD0012B03D1336C1A40022A1DD01D
:100D1000184B21E01F2319404900023100F053F81D
:100D200020601AE0326C1A40022A0FD011491F23AA
:100D3000032A0DD0012A03D0B26813405A1C02E0E6
:100D4000B2681A4001320B1C534305E0002303E054
:100D5000B268134001334B432360A96F206800F051
:100D600032F8206070BDC04600800440780E00005C
:100D700004000010001BB7000C490D48CA6F0D4B52
:100D80000243CA6700221A6401325A640121586C76
:100D9000084A0842FAD00020106751670122596FB3
:100DA0001142FBD0034B9A677047C0460480044051
:100DB000800004000080044008B5FFF7D3FC08BDA4
:100DC00003000B4321D4002931D00122D2070309AB
:100DD00001E0090112099942FBD9430801E04900E9
:100DE00052089942FBD900E04908401A07D3524102
:100DF000FAD301461046704749084018F7D29218B6
:100E0000FAD34018014610467047CB0F00D0494234
:100E1000021000D54042534008B5FFF7D4FF0CBC88
:100E2000521000D34042002A00D549421847F446E8
:100E3000002000F001F8604770475B746578743DEE
:100E400000206C656E3D0020636D643D0020202015
:100E5000002A002D2D20005B76322E3032203230D9
:100E600031362F30392F30352062792054616D6151
:100E70006B696368695D000020A1070000350C0004
:100E8000E0C81000C05C1500006A180040771B0025
:100E900080841E00C0912100009F240040AC2700E8
:100EA000E032290020402C00604D2F0000D430009B
:040EB00040E13300EA
:080EB400F4010000001BB7006F
:0400000300000103F5
:00000001FF
