:100000000004001003010000D5000000D70000002C
:1000100000000000000000000000000000000000E0
:10002000000000000000000000000000D9000000F7
:100030000000000000000000DB000000DD00000008
:10004000DF000000DF00000000000000DF00000013
:10005000DF000000DF0000000000000000000000E2
:10006000DF000000DF00000095080000DF00000056
:10007000DF000000DF00000000000000DF000000E3
:100080000000000000000000000000000000000070
:100090000000000000000000000000000000000060
:1000A000DF000000DF000000DF000000DF000000D4
:1000B000DF000000DF000000DF000000DF000000C4
:1000C0000C0D0000000000100400000004000010EF
:1000D0000C000000FEE7FEE7FEE7FEE7FEE7FEE7B6
:1000E000002310B5934203D21C585C500433F9E747
:1000F00010BD00238B4203D200221A500433F9E7CB
:10010000704710B50C4C0D4B9C4206D220686168BC
:10011000A268FFF7E5FF0C34F5E7094B9C4205D2D6
:1001200020686168FFF7E5FF0834F6E700F054FD4A
:1001300000F072FDFEE7C046C0000000CC000000E9
:10014000D400000008B5044B1B78002B02D02720F8
:1001500000F04AFC08BDC0460900001070B5061C3E
:100160000D1C0024AC421EDA230707D1FFF7EAFF7B
:10017000E0B200F0CBFC3A2000F036FC305D00F03D
:10018000C5FC0A4B234004D51022013B52421343C5
:1001900001330F2B02D100F087FC02E0202000F099
:1001A00023FC0134DEE700F07FFC70BD0F0000800F
:1001B0008021084AD36F0B43D367074B074AC139E5
:1001C0001A60074ADA61FD2252421A62E0225200A6
:1001D000995070470480044000C000400400FFFFB5
:1001E000FFFFFF020278131C303BDBB2092B09D959
:1001F000131C613B052B03D9131C413B052B19D85C
:100200000A33DBB21B01DAB24378181C3038C0B2B3
:10021000092801D810180BE0191C6139052901D8EB
:10022000573B04E0191C4139052903D8373BD01846
:10023000C0B201E0012040427047000070B5151CBB
:10024000041C0E1CFFF77EFF134800F023FC281C43
:1002500000F020FC114800F01DFCE0B200F032FC80
:10026000002C03DC0E4800F027FC70BD0D4800F0A8
:1002700011FC307800F0B8FB202000F0B5FB751CB5
:100280003419A542EED0287800F040FC064800F072
:1002900001FC0135F5E7C0469A0C0000A10C0000F6
:1002A000CD0C0000A70C0000AD0C0000F0B50378E9
:1002B00085B0041C0391161C772B06D1039AA11C50
:1002C000023A407800F034FA2BE0722B09D1A3787F
:1002D000039A4078E11C0093033A331C00F074FA4F
:1002E0001FE0632B14D10327039B9F420EDA607833
:1002F000A178E25D00F03AFA051E13D1274B187879
:10030000002801D000F004FB0137EDE7002509E0EB
:10031000672B01D000253DE04078A278311C00F029
:100320002FFA051C1E4B1B78002B07D06D42FFF7E0
:1003300009FFE8B200F0EAFB00F0B6FB2378722B6D
:1003400001D0672B26D1002D24D1164B1B78002B12
:100350000ED1FFF7F7FE371CA278BB1B934204DADD
:10036000387800F0D3FB0137F6E700F09DFB11E091
:10037000012B0BD1FFF7E6FE351CA278AB1B934295
:10038000C8DA287800F030FB0135F6E7A178301C98
:10039000FFF7E4FE281C05B0F0BDC04608000010C1
:1003A0000C0000100A000010F7B5002505700B784E
:1003B000071C0C1C281C402B00D0DAE0009501958E
:1003C0002378002B01D00A2B04D10020854200D0D5
:1003D000BDE0CEE00D2BF8D0402B01D00A20C7E0C5
:1003E0006678652E0AD1A3780022302B03D0312BFA
:1003F00000D0B6E001225F4B1A7009E06F2E09D1E0
:10040000A378303BDBB2022B00D9AAE05A4A137022
:100410000334D5E7442E09D1A3780022302B03D032
:10042000312B00D09DE00122544BE5E7762E06D11A
:10043000FFF788FE524800F03FFB0234C0E7742EFD
:1004400007D1A01CFFF7CEFE0028C7DB4D4B18706C
:1004500008E0542E08D1A01CFFF7C4FE0028BDDB25
:1004600000F056FA0434ABE7692E08D1A3780022D5
:10047000302B02D0312B74D10122434BBCE7019BBE
:10048000002B3BD1772E0AD1A01CFFF7ABFE002832
:10049000A4DB6B1C7E550434F854023514E0632E43
:1004A00001D0722E12D1A01CFFF79CFE002895DB14
:1004B0007B197E555870201DAE1CFFF793FE002857
:1004C0008CDB0335B8550634012315E0672E4AD17D
:1004D000A01CFFF787FE002880DB7B197E55587033
:1004E000201DAE1CFFF77EFE002800DA76E7012310
:1004F0000335B85506340093019361E7682E10D197
:100500000234201CFFF76EFE002800DA66E7013592
:100510006B1EF85402342378402B15D01F2BF0D8D3
:1005200012E0732E01D001344AE7291C2B1CA01CB9
:10053000421AD25C5C1A1D1C0419402A04D01F2ADE
:1005400002D9FA540133F3E70123009338E7019B02
:10055000002B0AD0009B002B09D0281E012808D1AF
:1005600005E00C2004E00D2002E00E2000E00F204A
:100570004042FEBD0C0000100A0000100B000010ED
:10058000AF0C0000080000100900001010B5002496
:10059000184BF0B010A88021221C1C7000F048FA03
:1005A000031C201CA34222DD684610A9FFF7FCFEB5
:1005B000041E0CDA104B1B78002B16D0FFF7C2FD7F
:1005C0006042C0B200F0A2FA00F06EFA0DE00B4BF0
:1005D0001B78002B03D0694610AAFFF72FFE684650
:1005E000211C30AAFFF762FE01E00120404270B0FA
:1005F00010BDC046080000100C0000100B000010D9
:1006000008B500F099FAFFF7D3FD00F053F9E121A6
:100610000948490200F0AEF900F00CF90122074B3D
:100620001A700023064A1370064A1370064A1370A4
:10063000FFF7ACFFFCE7C046004006400C0000108E
:100640000A0000100B0000100900001038B500F07F
:1006500069F9F530FF30051C0120054B5B6803404C
:100660001C1E04D100F05EF9A842F5D9201C38BD4B
:100670000000054038B5051CFFF7E8FF002813D03F
:1006800002230B4CA5622362FFF7E0FF002803D191
:1006900004230138236209E00E236268002013401E
:1006A000062B03D1032000E00120404238BDC046A4
:1006B0000000054038B504250C4C63682B4201D17D
:1006C00025620FE00123A0622362FFF7BFFF00282D
:1006D00002D12562013807E00E2362680020134032
:1006E000082B01D10420404238BDC046000005401F
:1006F00070B5061CFFF7AAFF0C4C00280FD06368EA
:100700009B0703D40423052523620BE0A56A002E72
:1007100009D001232362FFF799FF002803D10423A6
:10072000012523626D42281C70BDC04600000540B3
:1007300038B50C1C151CFFF79DFF6519002811D159
:10074000AC4206D02078FFF7B5FF01340028F7D07F
:1007500008E00422044B1A62FFF778FF0123584097
:10076000C0B2404238BDC0460000054007B501ABED
:1007700019705A70191C0222FFF7DAFFC0B20EBDC1
:10078000012370B518430D1C141CFFF773FF061EE0
:1007900016D1A6420BD0601E301A431E9841C0B23B
:1007A000FFF7A6FF00280BDBA8550136F1E704226E
:1007B000044B1A62FFF74AFF01235840C0B240427F
:1007C00070BDC04600000540F8B50C1C161C051C89
:1007D0001F1CFFF74FFFA619002827D1B44206D0EF
:1007E0002078FFF767FF01340028F7D01EE00120D2
:1007F0002843FFF73FFF041E18D1069B9C420CD0F4
:10080000069B581E201A431E9841C0B2FFF770FF86
:1008100000280BDB38550134EFE70422044B1A6241
:10082000FFF714FF01235840C0B24042F8BDC04654
:10083000000005408020134BC000196A0143196273
:10084000DA6902432020DA610F4B191DCA6F024397
:10085000CA6759680018814359605A6802435A6050
:1008600059220A4B3F385A611968002281431960A6
:1008700080215A62064A4900D1671A6802431A6009
:100880007047C0460040044000800440000005401E
:1008900004E100E00122054BD968114204D0DA607E
:1008A000034A1368013313607047C046004000409C
:1008B00004000010002210B5802480200F4BE400BB
:1008C0001A600F4B191DCA6F2243CA6759688143CA
:1008D0005960FA215A68890002435A60094B186826
:1008E00000F0A1F98021084B090618601A680A4334
:1008F0001A6001229A60054B1C6010BD04000010B4
:1009000000800440000000100040004000E100E0D2
:10091000034B1A6880181A688242FCD37047C0469D
:1009200004000010014B18687047C0460400001016
:1009300001210B4A10B511600A4A0B4B90420ED1AF
:1009400080240A4A07310A48D167C26FE401224372
:10095000C2675A688A435A605A680A435A6010BD8F
:1009600094800440004006400080044004E100E020
:1009700004800440F7B5194D041C0F1CFFF7D8FF85
:100980002B1C94331968164B186800F04CF904239B
:100990000609391C2360301C00F045F92B1CFF228E
:1009A000F033013820621A601868216A1B68013030
:1009B000DB43013170437943019300F034F9019B2B
:1009C000012218188223F4351B012860A3602368D4
:1009D000134300222360034B1A70F7BD00800440CC
:1009E000000000100D000010024B9A685207FBD562
:1009F000D861704700400640024B986801231840B8
:100A00007047C0460040064010B5074B1A781C1CC2
:100A1000002A07D0FFF7F0FF002801D0034B5B69E5
:100A20000023237010BDC0460D000010004006409A
:100A3000F7B5171C0191051CFFF774FF0024061C75
:100A4000FFF7E2FFFFF7D8FF00280DD00F4B5B69DF
:100A5000DBB22B700D2BF5D00A2B13D0FFF762FF02
:100A600001340135061C06E0002F04D0FFF75AFFC1
:100A7000801B874206D8019B013B9C42E2DB01229E
:100A8000034B1A700023201C2B70FEBD0040064053
:100A90000D00001010B5041C2078002803D0FFF7CB
:100AA000A3FF0134F8E710BD08B50D20FFF79CFF48
:100AB0000A20FFF799FF08BD08B5FFF7EBFFFFF726
:100AC000F3FF08BD10B5041E642C0BD9642100F09F
:100AD000AAF83030C0B2FFF787FF201C642100F075
:100AE000A2F8CCB20A2C0CD90A21201C00F09BF8E9
:100AF0003030C0B2FFF778FF201C0A2100F093F8D5
:100B0000CCB23034E0B2FFF76FFF10BD030910B56F
:100B1000041C181C3030092B01D93733181CFFF77F
:100B200063FF0F232340181C3030092B01D93733C2
:100B3000181CFFF759FF10BD70B5234D00206B6ADC
:100B4000DB051B0F013B0E2B02D8204A9B00985857
:100B50000322696A2B6F1C4E13401D4C022B09D0D7
:100B600093420FD0012B03D1336C1A40022A1DD0BF
:100B7000184B21E01F2319404900023100F053F8BF
:100B800020601AE0326C1A40022A0FD011491F234C
:100B9000032A0DD0012A03D0B26813405A1C02E088
:100BA000B2681A4001320B1C534305E0002303E0F6
:100BB000B268134001334B432360A96F206800F0F3
:100BC00032F8206070BDC04600800440D00C0000A8
:100BD00000000010001BB7000C490D48CA6F0D4BF8
:100BE0000243CA6700221A6401325A640121586C18
:100BF000084A0842FAD00020106751670122596F55
:100C00001142FBD0034B9A677047C04604800440F2
:100C1000800004000080044008B5FFF7F1FC08BD27
:100C200003000B4321D4002931D00122D20703094C
:100C300001E0090112099942FBD9430801E049008A
:100C400052089942FBD900E04908401A07D35241A3
:100C5000FAD301461046704749084018F7D2921857
:100C6000FAD34018014610467047CB0F00D04942D6
:100C7000021000D54042534008B5FFF7D4FF0CBC2A
:100C8000521000D34042002A00D549421847F4468A
:100C9000002000F001F8604770475B746578743D90
:100CA00000206C656E3D0020636D643D0020005B9C
:100CB00076312E303120323031352F30342F3138EB
:100CC0002062792054616D616B696368695D000021
:100CD00020A1070000350C00E0C81000C05C150022
:100CE000006A180040771B0080841E00C09121001C
:100CF000009F240040AC2700E032290020402C0057
:0C0D0000604D2F0000D4300040E13300B3
:040D0C00001BB70011
:0400000300000103F5
:00000001FF
